:020000040800F2
:1000000028090020AD010008A3540008014500089C
:10001000A15400083D220008255F000800000000F0
:10002000000000000000000000000000DD59000892
:100030003F22000800000000C1590008DF590008F5
:10004000C7010008C7010008C7010008C701000870
:10005000C7010008C7010008C7010008C701000860
:10006000C7010008C7010008C7010008C701000850
:10007000C7010008C7010008C7010008C701000840
:10008000C7010008C7010008C7010008C701000830
:10009000C7010008C7010008C7010008C701000820
:1000A000C70100084D5A0008C7010008415A00085E
:1000B000C7010008C7010008C70100081145000872
:1000C00005450008294500081D450008C70100082E
:1000D000C7010008C7010008195F0008C701000830
:1000E000C7010008C7010008C701000800F002F8B6
:1000F00000F04DF80AA090E8000C82448344AAF175
:100100000107DA4501D100F042F8AFF2090EBAE872
:100110000F0013F0010F18BFFB1A43F0010318473B
:1001200088740000A8740000103A24BF78C878C111
:10013000FAD8520724BF30C830C144BF04680C60ED
:10014000704700000023002400250026103A28BF35
:1001500078C1FBD8520728BF30C148BF0B60704739
:10016000662907F01B81002070471FB500F066FE6E
:1001700004000020002106F093F9401C606000207C
:10018000002106F077F9E0601FBD10B510BD01F049
:100190001BF91146FFF7E9FF05F0D6FF01F078FBE8
:1001A00003B4FFF7F2FF03BC01F0DEFB0948804710
:1001B00009480047FEE7FEE7FEE7FEE7FEE7FEE749
:1001C000FEE7FEE7FEE7FEE704480549054A064B61
:1001D000704700003F5A0008ED0000082803002087
:1001E000280900202805002028050020B2F120035E
:1001F0000AD5C2F1200320FA02F001FA03F321FA32
:1002000002F140EA0300704721FA03F04FF00001C9
:10021000704700000FB41CB5074B06AA7B44694623
:100220000090059800F03FFB0020694600F04EFB6F
:100230001CBC5DF814FB0000AD06000070B5044660
:1002400085690068C10601D5302600E02026C00778
:1002500007D070BDD4E9012130469047206A401C88
:1002600020626D1EF6D570BD70B5044685690078B4
:10027000C00707D170BDD4E9012120209047206A32
:10028000401C20626D1EF6D570BD2DE9F0474FF081
:10029000000A89460446C0F820A02046E168884745
:1002A000002876D0252806D0D4E901219047206A7D
:1002B000401C2062F1E7E168204600258847C4F829
:1002C0001CA006460027C4F818A02A2E09D03046E4
:1002D00005F0CDFE38B304EB8708303EC8F818604F
:1002E00019E059F8041B204604EB87029161E1688C
:1002F0008847012F064618D1E069002820DA25F04A
:1003000020051DE0D8F8180000EB800006EB400047
:100310003038C8F818002046E1688847064605F0DE
:10032000A6FE0028EED1012F0AD02E2E08D120469D
:10033000E16888477F1C0646022F45F02005C4DB94
:10034000A069002803DA404245F00105A061E807F2
:1003500001D025F01005B6B1A6F14100192802D848
:10036000203645F400654A463146204625604D4614
:10037000FFF7F6FE58B1012806D0ED1D25F0070065
:1003800000F1080989E704E005F1040985E7304632
:100390008AE7206ABDE8F0870FB400B58DB010A9D8
:1003A000099000910B904FF0FF300A9000200C90C4
:1003B000064878440690064878446A4607900F99A4
:1003C00009A800F00BFD0DB05DF814FB470A000012
:1003D0005F0A000002F0FF0343EA032242EA0242FE
:1003E00000F002B84FF000020429C0F0128010F0B3
:1003F000030C00F01B80CCF1040CBCF1020F18BF01
:1004000000F8012BA8BF20F8022BA1EB0C0100F093
:100410000DB85FEAC17C24BF00F8012B00F8012B66
:1004200048BF00F8012B70474FF0000200B513469B
:1004300094469646203922BFA0E80C50A0E80C5004
:10044000B1F12001BFF4F7AF090728BFA0E80C50B5
:1004500048BF0CC05DF804EB890028BF40F8042BAE
:1004600008BF704748BF20F8022B11F0804F18BF1B
:1004700000F8012B704770477047704770472DE9AF
:10048000FF4F0C461E464FF0FF378BB0D2E90001FC
:10049000DDF860800A908A46C1F30A5505B93D46E9
:1004A000002108464FF00000BAF1000F00F44000B0
:1004B00005DA00EB80004FF4400101EA50004FEAFA
:1004C0009059B9F1010F00DDB9460A9850EA4A0087
:1004D0000ED044F61050A5F2FF3545432F14B8F165
:1004E000000F1ED07542291E1EDDC9F100021CE05E
:1004F000B8F1010F4FF0000001D0302103E0F243CA
:1005000005E02154401CB042FBDB304600220021B4
:1005100021540B99C1F80880C1E900200FB0BDE853
:10052000F08FBD1B6D1CDEE74A4600DA694206A863
:1005300000F0D4FE06AB93E8070003AB83E80700A6
:1005400050460A9901F017FA8DE80700A0F500500F
:100550001F3800900398002D0ADD42F21F014A4621
:100560000844002303A90390684601F0C3FC09E096
:10057000A0F500504A461F38002303A9039068469F
:1005800001F0E2FC8DE807000004000C03D04FF0FE
:10059000FF30410800E01046B8F1000F03D0002200
:1005A000009215461EE0751E05D400F04FFC303257
:1005B00062556D1EF9D5B3460122084302D00022D0
:1005C0007F1C04E02078302801D100227F1E002A01
:1005D000099784D01DE0112D07DA00F037FC303286
:1005E00062556D1C50EA0102F5D1084302D0009813
:1005F000C8B10EE00021681E05E0235C625C635414
:100600002254401E491C8142F7DBAB46A81B401E0A
:100610000990002004F80B000B98099AC0F8088094
:10062000C0E9002B7AE711264FF0000857E72DE9C3
:10063000F04F88460446D21D22F0070191B0D1E95F
:100640000001CDE90A0105F06EFC02460B98C00FCF
:1006500001D02D2007E02068810701D52B2002E082
:10066000202101EAC000032A099001D0072A05DBF6
:1006700003464146204600F037FC0BE12078800617
:1006800001D5E06900E00620B8F1650F814606D08B
:10069000B8F1660F18D0B8F1670F70D131E00020C3
:1006A000B9F1110F009001DB112301E009F1010301
:1006B0000AAA01A90CA8FFF7E2FEDDE90C700026EA
:1006C00009F10105834647E001204B4600904FF0B9
:1006D00000470AAA01A90CA8FFF7D1FEDDE90DB079
:1006E0000C995D46002610B909F101000D18B9EB0F
:1006F000050003D4C0F1FF3609F10105A5EB09009F
:100700002BE0B9F1010F01DA4FF001090020B9F136
:10071000110F0090484601DD112300E003460AAAAC
:1007200001A90CA8FFF7ABFEDDE90C704D460026D1
:100730008346207800070AD4AB4500DA5D4601A85D
:10074000012D04DD411911F8011C302907D04F4556
:1007500002DA17F1040F04DA012082460FE06D1E61
:10076000EEE7002F02DCED1B3E4403E0781CA842BC
:1007700000DD7D1CB81B00F1010A4FF00047207816
:10078000000703D4AA4501DB4FF0FF3A0021B7F17F
:10079000004F0DF143088DF8431024D002202B2385
:1007A000002F01DA7F422D230A21021EA0F1010051
:1007B00000DC5FB197FBF1FC97FBF1F201FB1C7CC5
:1007C00017460CF1300C08F801CDEEE7A8F1010056
:1007D00003702188090501D5452100E06521A0F1BC
:1007E000010800F8011C09980FA9A1EB0807FF1DDB
:1007F00000B10120411901EBEA70A1693844081ADF
:10080000401EA0612078C00602D42046FFF716FDE6
:10081000099828B1D4E901219047206A401C206240
:100820002078C00622D52046FFF708FD1EE0002EE6
:1008300004DBB34502DD01A8805D00E03020D4E98F
:1008400001219047206A401C2062761CAAF1010019
:100850005FEA000A0AD100F0F1FAC0680168405C62
:10086000D4E901219047206A401C2062281EA5F18E
:100870000105DCDC07E0D4E9012118F8010B904701
:10088000206A401C2062381EA7F10107F3DC2046D5
:10089000FFF7EAFC032011B041E6000001694A1CA1
:1008A00002610878704700B58FB0CDE901310021B1
:1008B000059105497944CDE9031011466846FFF7D3
:1008C000E4FC0FB000BD0000E5FFFFFF0A6802F87E
:1008D000010B0A60704700002DE9FF4F06468BB000
:1008E0000878FF2806D0491C2D2805D000244FF099
:1008F000000908E000200CE00124F8E709EB890377
:10090000491C00EB43090878FF28F7D114B1C9F15D
:1009100000008146107800252C46AA4629462D283D
:1009200001D02B2804D1521C2D2813D00020824640
:100930008B461078FF280FD04FF0000C0A21521C74
:10094000A5FB017804FB018105FB0C11C5194BEBDC
:100950000104EEE70120EAE7002108464FF000001D
:10096000BAF1000F02D000EB80004008C0F38157BD
:10097000012F01DD4FF0FF370E9955EA040009EB16
:1009800001080BD04FF0020918F5FA7F16DA4FEA8A
:10099000CA70002F706008DD012007E04FEACA70BE
:1009A000C6E900B00FB0BDE8F08F0020306000F065
:1009B00049FAC0F800901821084616E0B8F5FA7F09
:1009C00018DD002F02DAF748784401E0F648784451
:1009D000D0E90010C6E9001040EACA70706000F06B
:1009E00031FAC0F80090142108460FB0BDE8F04F6E
:1009F00006F0D1BC002108464FF00000B8F100011C
:100A0000099002DAC7F1000200E03A4601DAC8F1C3
:100A1000000106A800F062FC06AB93E8070003ABF8
:100A200083E8070044F23E005BEA04010090584668
:100A300004D144F21E012C465D460091210C0904AC
:100A4000014306D10099240444EA15442D041039C9
:100A5000009104F07F41014306D10099240244EA49
:100A600015642D020839009104F07041014306D14C
:100A70000099240144EA15742D01091F009104F026
:100A80004041014306D10099A40044EA9574AD00A9
:100A9000891E009104F00041084304D100986D19AB
:100AA0006441401E00904FF001033A466846B8F199
:100AB000000FCDE9014503A902DD01F05AFA01E07A
:100AC00001F02DFABAF1000F04460D4601D084F072
:100AD0000044002108464FF00000099940F2FF77DA
:100AE000484010F00C0F07D124F00040284303D0F9
:100AF000C4F30A50B84212D100F0A4F9C0F8009033
:100B0000C4F30A50B8420AD1A8487844D0E900108A
:100B1000C6E9001004F000410843706042E7C6E9EE
:100B200000543FE72DE9FF4F1F464FF0000A4FF0FA
:100B3000FF38454691B0D7E90146CDF83CA000F01A
:100B40007DF9C0680168405C1090B96912986D1C0D
:100B50008847396A814688470028F6D1B9F1FF3FB6
:100B60000AD0002E24F4D06411DDB9F12B0F08D087
:100B7000B9F12D0F0BD102E0404615B013E744F454
:100B80008064B96912986D1C8847761E814660059D
:100B900004A901D52D2000E02B20002E01F1010B2E
:100BA0000DF130088DF810003FDDB9F1690F08D064
:100BB000B9F1490F05D0B9F16E0F02D0B9F14E0F5E
:100BC0001CD13B4601A8009580E85002DDE91212D5
:100BD0006FF0020006F06EFCC11CCED10EE0B969C8
:100BE00012986D1C884781461398761E44F4007451
:100BF00005600F98401C002E0F9016DDB9F1300FE4
:100C0000EDD0B9F1780F02D0B9F1580F0DD10F988E
:100C100001280AD13B46CDE90054DDE91212001F3C
:100C2000029606F045FCC11CA7D1109989453ED11A
:100C300044F0800406E01399681CAAF1010A44F408
:100C400000740860B9696D1C1298761E88473028B8
:100C50008146F0D02BE01099894505D1200603D4B8
:100C6000761E44F0800418E0484605F000FA08B308
:100C7000761E0DF123018B4544F4007408D2A9F1CE
:100C800030000BF8010B200607D5AAF1010003E0A4
:100C9000200602D40AF101008246A00502D513996C
:100CA000681C0860B96912986D1C88478146002E3F
:100CB000D1DC53E0002E51DDB9F1650F02D0B9F15E
:100CC000450F4BD1A00549D5B9696D1C1298761E08
:100CD00024F440748847002E81460CDD2B2804D074
:100CE000B9F12D0F07D144F48074B96912986D1CC5
:100CF0008847761E8146E00501D52D2100E02B2195
:100D000008F8011BCDF8008021E0761E0DF13901B5
:100D1000884544F400740CD2A9F1300010F0FF00B3
:100D200088F8000002D10099884509D908F1010826
:100D300006E0E00501D51E4801E042F20F70824650
:100D4000B96912986D1C8847814613980560002E7A
:100D500004DD484605F08BF90028D6D1F9691298D0
:100D60008847FF2053468BF8000088F800000020D9
:100D70000A900B9004AA0CA90AA8FFF7ADFDA005E4
:100D800002D46FF00100F8E614F0240F12D0E0074F
:100D90001CD13868DDE90A12031D3B600068C0E918
:100DA000001213E0046C0000F66B0000BA6A000049
:100DB000F1D8FFFF0AA9684605F0E8F8E00705D179
:100DC0003868009A011D3960006802602846D4E640
:100DD000026811441378016018467047D1600549D4
:100DE000794451610449794411620021116111462D
:100DF00000F0BAB8EDFFFFFFED000000426842B11D
:100E0000016811F8013B23B1521EC0E900121846D7
:100E100070470121C160881E704742685AB1C3689B
:100E2000016843B983688B4205D0491E521CC0E952
:100E30000012002070474FF0FF30704700487047A5
:100E4000E802002000487047C802002030B5B0F129
:100E50000A024FEA900E71F100034EEA817EB0EB78
:100E60000E0061EB91014FEA101E4EEA017E10EB7D
:100E70000E0041EB11114FEA102E4EEA016E10EBFD
:100E80000E0041EB11214FEA104E4EEA014E10EBDD
:100E90000E0041EB1141401841F100014FEAD00032
:100EA00040EA41704FEAD10110EB80054FEA81041E
:100EB00044EA907444EB01046D1944EB0404521BA2
:100EC000A3414FF0000348BF0A3200D530BD401C9B
:100ED00041F1000130BD10B5044600F09BFA0068F6
:100EE000005D00F0010010BD2DE9F0411F460446F1
:100EF00003260168072A01F4006004DB08B116A587
:100F000005E016A503E008B115A500E015A521F040
:100F100010002060A069C01EA0610FB1401EA0613A
:100F20002046FFF78BF94FB1D4E9012138469047AD
:100F3000206A401C2062C01C206206E0206AFAE79A
:100F4000D4E9012115F8010B9047761EF8D220460E
:100F5000FFF78AF9BDE8F0814E414E006E616E00E8
:100F6000494E4600696E66002DE9F34F4FF0000AC6
:100F70000C4656468DB001200C9001F10C000B90F0
:100F800062690B9801219047051E2DD0252D2CD08C
:100F9000216A8847C0B162690B9801219047216A94
:100FA00088470028F7D16269411E0B98904700E0FE
:100FB000761CA1690D988847216A88470028F7D1D7
:100FC000E1690D988847DBE7A1690D988847A84239
:100FD000074601D1761CD3E7E1690D9888477F1C4D
:100FE00002D1BAF1000F6FD06BE162690B98002754
:100FF0003D46394690472A2804D162690B98012161
:1010000090470125DFF8D08262690B980121904753
:10101000A0F130010A290AD24745E5DC07EB870138
:1010200000EB4107303FDFD445F01005ECE7E9065F
:1010300001D46FF000476C280AD04C2814D06828DF
:1010400015D06A280DD074281CD07A281AD01DE03B
:1010500062690B98012190476C2802D045F0040585
:1010600014E045F002050DE045F020050AE0626954
:101070000B9801219047682802D045F0080505E04B
:1010800045F4006562690B9801219047C4E9015756
:1010900065283DD019DC58287AD00CDC452837D09B
:1010A00004DC252826D041289ED131E046282FD0C7
:1010B000472899D12CE05B2877D0612828D0632875
:1010C0007CD0642823D15AE0F6E06F2848D008DCB1
:1010D00066281DD067281BD0692821D06E2816D11C
:1010E00027E0702845D0732868D0752847D0782825
:1010F0000DD14DE0A1690D988847252805463FF49C
:1011000069AFE1690D9888476D1C3FF46AAFD8E07C
:101110000D9923466A466FF0010006F0C7F9C5E055
:1011200045F0400023464FF000026060A80736D427
:101130003EE0E8077FF447AF2068011D21600068AA
:10114000290501D506701BE7290701D5068017E799
:10115000A90703D5F117C0E9006111E706600FE7A1
:1011600045F0400023464FF008026060A80716D4FF
:101170001EE040F60E0125EA0100606016E045F031
:10118000400023464FF00A026060A80707D40FE032
:1011900045F040006060A80708D5234610220D994D
:1011A0006FF00100AFF3008080E007E010222346DB
:1011B0000D996FF00100AFF3008077E04FF0000968
:1011C00063284F46C8464B46CB4602D05B2806D024
:1011D00038E0E80601D40120A060012732E062690E
:1011E000D4F80CB00B98012190475E2807D14FF03E
:1011F000010949466269D4F80CB00B9890472169FF
:1012000039B900210A4603AB43F82120491C0829BB
:10121000FADBD8B3216949B308F1010862690B9878
:10122000012190475D28F4D1B9F1000F09D00020C9
:1012300003A951F82020D24341F82020401C08285F
:10124000F7DB03AB2069002820794FEA40701ED0FD
:101250005B462246CDF80080CDE901970D99002824
:101260006FF0010020DAAFF300801FE0C11703AA7E
:1012700000EBD1614B1121F01F0102EB8302411AF7
:1012800013680120884003431360C7E719E00D99F4
:10129000224600286FF00100009702DAAFF30080C9
:1012A00004E0AFF3008001E0AFF3008000280ADA29
:1012B000401C06D10C9820B14FF0FF300FB0BDE8B4
:1012C000F08F5046FAE7E90701D10AF1010A064416
:1012D00000200C9054E60000CCCCCC0C2DE9F0475B
:1012E000814616468AB0354878440DC88DE80D0011
:1012F00032487844801C03AC0DC884E80D0041F6E8
:101300009B300844372190FBF1F290FBF1F5A5F1F9
:10131000800501FB12041B3C02D56442012000E061
:101320000020DFF898A080460027FA44AAF1BE0A00
:101330000EE0E0070AD03246684607EB470101237A
:101340000AEB810100F000FE8DE8070064107F1CAD
:10135000002CEED1194F7F44AE3F19E0E80715D0BD
:1013600007EB04100DF1180A90E80E008AE80E0051
:10137000C068F04201D1981908903246012306A9AD
:1013800003A800F0E1FD03AB83E807006D10641CC7
:10139000002DE3D14FF0010332466946B8F1000F4A
:1013A00003A802D000F0A6FD01E000F0CDFDC9E9E0
:1013B0000001C9F808200AB0BDE8F087A462000067
:1013C00000487047C80200207546FFF7F9FFAE4697
:1013D00005006946534620F00700854618B020B541
:1013E000FEF7F2FEBDE820404FF000064FF0000788
:1013F0004FF000084FF0000B21F00701AC46ACE8BD
:10140000C009ACE8C009ACE8C009ACE8C0098D4629
:101410007047000010B5FFF711FD001D10BD00BFA3
:101420008150000010B5FFF70DFD006810BD10B52C
:101430000446FFF707FD046010BD00002DE9FF4FD3
:101440001F464FF03C0987B04FF00042DDE9141011
:1014500001F10108DDF858A002EA40500390002095
:1014600005908346054604460490B969461E0898CF
:101470008847AAF1010A0290BAF1000F3BDD0298F9
:101480002E2815D0102100F060FA00282EDB4FF036
:10149000010B0599014317D0B9F1000F0BDB4A4648
:1014A000C11700F03FFA05430C43A9F1040905E018
:1014B000012004900BE008B145F0010501200590E2
:1014C000049820B9361D02E0049800B1361FB969AE
:1014D000089808F101088847BBF1000FAAF1010A3A
:1014E0000290C9D00999C1F80080C5E70298702818
:1014F00008D0502806D0F96908988847BBF1000F3A
:1015000014D04FE0002002900120BBF1000F0490A6
:1015100009D0B969089808F101088847AAF10109BA
:10152000B9F1000F07DCF969089888476FF00100EE
:101530000BB0BDE8F08F2B2804D02D280CD14FF034
:10154000FF300490B969089808F101088847A9F1AB
:101550000109B9F1000FE6DD411CE4D00A2100F0D9
:10156000F4F90028DFDB029908F1010801EB8101A1
:1015700000EB41000290B969089888470A2100F001
:10158000E4F9099AA9F10109B9F1000FC2F8008044
:1015900001DD0028E7DAF96908988847049902987C
:1015A00000FB016655EA040004D004F04041090044
:1015B00002D006E0039898E0A40044EA9574AD00D8
:1015C000B61E04F00041080002D16D196441761E78
:1015D000159810F0240F03D04FF00B095C4803E07E
:1015E0004FF028096FF07D008246564507DAAAEBD6
:1015F00006018944B9F1410F01DD4FF04109012095
:101600000021A9F1010200F08DF9024628400B46A5
:101610002140084301D0012100E00021501E029129
:1016200043F1FF3128402140084301D0012000E070
:1016300000200299834651EA0B014FD00021084651
:101640004FF00000039900F4400039B100EB800036
:101650004FF4400100EBD07001EA600080150128D2
:1016600002DD4FF0FF3000E013D0401C36D002986E
:1016700060B3BBF1000F0CD14A460120002100F0FD
:1016800051F928402140084301D0012000E000200A
:10169000E0B101204A46002100F044F90346401918
:1016A0000A4661412D1A8C4111D3B9F1400F09DD71
:1016B000159810F0240F02D0AAF1340603E0AAF125
:1016C000170600E0761C00254FF0004406E05B1E84
:1016D00042F1FF3220EA030521EA0204CAF10100C7
:1016E000B04206DA1B49039808430190002000909D
:1016F0000EE0039AC4F3D321E80A0A43164940EAEC
:1017000044500A433146CDE90002684604F0A4FC87
:10171000159810F0240F0BD01598C00715D1386814
:10172000DDE90012031D3B600068C0E900120CE017
:1017300002A8694604F02AFC1598C00705D138684C
:10174000029A011D3960006802604046F0E6000020
:1017500002FCFFFF0000F07F0000F03F2DE9FF4F8B
:1017600092461D4685B04FF00041DDE9124BDDE9A0
:1017700014727F1E01EA4B50414940F0FF4940EA94
:101780000108002122F020004928049102D04E28AF
:1017900028D04CE03BA0012607C88DE80700A969C6
:1017A0000698641C88477F1E014606D41DF8060073
:1017B00018B121F0200181420BD0E96906988847D1
:1017C000032E34D0082E32D06FF0010009B0BDE8EE
:1017D000F08F761C032E01D0082EE0D1601CCAF8D1
:1017E0000000DCE7A9690698641C88477F1E2AD49C
:1017F00020F02000412826D1A9690698641C88475A
:101800007F1E20D420F020004E281CD1A969069804
:10181000641C88477F1E48F4002849F48009CAF8F0
:10182000004001D4282806D0E969069888475FEA75
:10183000CB7012D022E0A9690698641C88477F1EED
:1018400001D4002803DAE96906988847BCE729280B
:10185000F1D1641CCAF80040E9E71BF0240F07D05F
:1018600028680499031D2B600068C0E9001805E092
:101870002868021D2A600068C0F800902046A5E78D
:101880000000F07F494E46494E495459000000007F
:1018900010B50446AFF300802046BDE81040FEF7C7
:1018A0007FBC00004FF0013C50F8042B51F8043B82
:1018B0009A4221D1A2EB0C03934313EACC1317D124
:1018C00050F8042B51F8043B9A4215D1A2EB0C03BB
:1018D000934313EACC130BD150F8042B51F8043B7B
:1018E0009A4209D1A2EB0C03934313EACC13DBD049
:1018F0004FF00000704700BFD01A01BAB1FA81F171
:1019000001F0180122FA01F0CB40C1F12001DBB255
:10191000C0B2C01A2CFA01F3D11A914311EAC311D3
:10192000E6D17047B2F120030AD5C2F1200301FAD3
:1019300002F120FA03F300FA02F041EA03017047D2
:1019400000FA03F14FF0000070473A2800D2303817
:1019500020F02002412A01D3A2F13700884201D3AE
:101960004FF0FF307047000001491820ABBEFEE782
:101970002600020070475FEA400C08BF91F0000F9C
:101980004FEA8C234FEAC12243EA51514FEA1C50DF
:1019900018BF00F5F0404FEA300018BF41F0004199
:1019A0005FEA6C5C00F02980BCF1FF3F08BF40F0AB
:1019B00080407047130C06BF12044FF0100C4FF01C
:1019C000000C130E04BF12020CF1080C130F04BF1D
:1019D00012010CF1040C930F04BF92000CF1020CE5
:1019E000D30F04BF52000CF1010C11464FF000025E
:1019F000A0F11F00A0EB0C00704711F0004F08BFD2
:101A0000704731F000413FF4D5AF0B0C06BF09041D
:101A10004FF0100C4FF0000C0B0E04BF09020CF13C
:101A2000080C0B0F04BF09010CF1040C8B0F04BF51
:101A300089000CF1020CCB0F04BF49000CF1010C22
:101A4000CCF12003A0EB0C0022FA03F302FA0CF213
:101A500041EA030100F10100704720F07F4C80EA69
:101A6000030023F07F47ACEB070303F57C5300F042
:101A7000004003F1FF032DE980494FEA154B09B4FB
:101A80004FEA144325EA0B4E24EA03480FF20426DA
:101A900006EB132749083E785FEA320203FB06672C
:101AA000C7F5000707FB06F64FEA54374FEAD6465C
:101AB00006F1020607FB066CCCF1005C4FEA1C47FE
:101AC0002CEA074C07FB06F40CFB06F504EB154665
:101AD0004FEA961634BF00204FF000404FEAD1374E
:101AE00006FB07FC4FEA1C4C0CFB0BF7D21B03FB5D
:101AF0000CF761EB07010CFB0EF7B0EB074072EB44
:101B000017420CFB08F734BFA2EB0742B2EB0742C7
:101B100061EB17414FEA0C444FEA910706FB07FCC3
:101B20004FEA1C4C0CFB0BF7B0EBC74072EB573283
:101B300003FB0CF734BFA2EBC742B2EBC74261EB29
:101B400057310CFB0EF7B0EBC70072EB57720CFB72
:101B500008F734BFA2EBC702B2EBC70261EB5771C3
:101B6000039F4FEA816141EA921104EBCC044FEAF2
:101B7000D1374FEA826206FB07FC42EA90124FEA35
:101B800080604FEA1C4C0CFB0BF7D21B03FB0CF7DD
:101B900061EB07010CFB0EF7B0EB074072EB17424D
:101BA0000CFB08F734BFA2EB0742B2EB074261EB34
:101BB00017414FEA8C554FEA910704EB9C2406FB32
:101BC00007FC4FEA1C4C0CFB0BF7B0EBC74072EB69
:101BD000573203FB0CF734BFA2EBC742B2EBC7424C
:101BE00061EB57310CFB0EF7B0EBC70072EB57728D
:101BF0000CFB08F734BFA2EBC702B2EBC70261EBE4
:101C0000577115EB4C254FEA816141EA92114FEA79
:101C100082624FEAD13742EA901206FB07FC44F198
:101C200000044FEA80604FEA1C4C0CFB0BF7D21B00
:101C300003FB0CF761EB07010CFB0EF7B0EB074061
:101C400072EB17420CFB08F734BFA2EB0742B2EB72
:101C5000074261EB174115EB1C154FEA813141EA50
:101C600092414FEA823242EA90424FEA80304FEA94
:101C70000C7644F1000448EA03434EEA0B484FF067
:101C8000000EB2EB080C71EB030724BF6246394625
:101C90004EEB0E0E4FF0000B0018524149414BEB3A
:101CA0000B0BB2EB080C71EB03077BF1000B24BFAD
:101CB000624639464EEB0E0E4FF0000B00185241B3
:101CC00049414BEB0B0BB2EB080C71EB03077BF1BB
:101CD000000B24BF624639464EEB0E0E51EA020756
:101CE00018BF46F0010616EB0E7655F1000254F1CE
:101CF000000103D5BDE88901BDE80088BDE8890180
:101D0000BDE80048B619524141EB0101A3F10103BE
:101D1000704780807F7E7D7C7B7A79787776767558
:101D20007473727171706F6E6E6D6C6C6B6A6A69D0
:101D30006868676666656464636362616160605F6A
:101D40005F5E5E5D5D5C5C5B5B5A5A5959585857E3
:101D5000575656555555545453535252525151504B
:101D600050504F4F4F4E4E4D4D4D4C4C4C4B4B4B9E
:101D70004A4A4A49494948484847474747464646E4
:101D8000454545444444444343434342424242411F
:101D90004141000046EA0646A3F570534FEA164655
:101DA00046EA42564FEAD22242EA415210B54FEA81
:101DB000D121A3F1010300F02FF820F0004000F141
:101DC000020C00F0004701EB00501146BCF5006F1B
:101DD00040EA070000D210BDBAF1000F0AD01CB5CE
:101DE00003B44FF004004FF004014FF000000FBCAB
:101DF000BDE810404FF00001BBF1010FB9BF04482E
:101E00004FF0FF310348002140EA070010BD00BF3A
:101E1000FFFFEF7F0000F07F002B9C4630D477005F
:101E20002BD01CB54FEA370703B44FF010004FF02A
:101E30001001BAF1000F06D0BCF1000FDCBF40F07A
:101E4000080040F008014FF000000FBCBDE8104052
:101E50000BF1010BBBF1010F08BF5FEA170722BFAF
:101E600012F1010211F101014FF0004143F10003B1
:101E700000F0004043EA00007047F9D35708D0E76C
:101E800046EA064613F1400F4FEA16461FDD13F1EE
:101E9000200FDFBF16430A46002120335B42BED02D
:101EA000C3F1200746EA064602FA07F74FEA16464C
:101EB00046EA0706C3F1200722FA03F201FA07F700
:101EC00021FA03F14FF0000342EA0702A7E746EACE
:101ED000020646EA06464FEA164646EA0106BCBF37
:101EE00046EA0646360C4FF000034FF000024FF072
:101EF000000194E72DE9804C9A46934670B491E82E
:101F0000380007C831EA400C48BF34EA430C03D517
:101F1000FFF7A3FDFFF780FFF0BCBDE8008C2DE9C3
:101F2000804C9A46934670B491E8380007C831EA6D
:101F3000400C48BF34EA430C03D5FFF78EFDFFF792
:101F400029FFF0BCBDE8008C2DE9804C9A469346F1
:101F500070B491E8380007C810F0804F08BF13F044
:101F6000804F03D100F01AF8FFF756FFF0BCBDE830
:101F7000008C2DE9804C9A46934670B491E8380065
:101F800007C810F0804F08BF13F0804F03D100F056
:101F900005F8FFF7FFFEF0BCBDE8008C20F07F479E
:101FA00080EA030023F07F4C07EB0C03A3F57C537E
:101FB00000F00040A3F1FE0392F0000F00F0B380A8
:101FC00095F0000F00F077802DE901494FEA1140AC
:101FD0004FEA144621EA004800FB06FC24EA0647C3
:101FE00008FB06F607FB08F800FB07F718EB0648A6
:101FF0004CEB164C4FEA124B18EB07484FEA1546CC
:102000004CEB174022EA0B4E0BFB06FC25EA064779
:102010000EFB06F607FB0EFE0BFB07F71EEB064E4C
:102020004CEB164C4FF000061EEB074E4CEB174BDB
:1020300018EB0B0840F1000018EB0E0B58EB0008F2
:1020400040F100008F1A4FF000013CBFC943661BEE
:1020500014BFB5EB040C00213CBFC943F61B4FEA8B
:1020600017444EEA8E0E27EA04454FEA1C4704FB4C
:1020700007622CEA074C05FB07F70CFB05F604FB8F
:102080000CFC16EB074642EB174216EB0C4642EBF4
:102090001C421BEB060658EB0202414146EA9E0633
:1020A00001D5BDE80189B619524141EB0101A3F107
:1020B0000103BDE801894FEA14454FEA114724EABC
:1020C000054621EA074C05FB07F406FB07F70CFB66
:1020D00006F105FB0CFC11EB074144EB17444FEAFA
:1020E000124711EB0C4144EB1C4422EA074C05FB60
:1020F00007F206FB07F70CFB06F605FB0CFC16EBDC
:10210000074642EB174216EB0C4642EB1C456A1899
:1021100054F1000148BF7047B619524141EB01012B
:10212000A3F10103704795F0000F37D04FEA114239
:102130004FEA144721EA024624EA074C02FB07F162
:1021400006FB07F70CFB06F402FB0CFC14EB074440
:1021500041EB17414FEA154714EB0C4441EB1C418E
:1021600025EA074C02FB07F506FB07F70CFB06F612
:1021700002FB0CFC16EB074645EB174516EB0C462D
:1021800045EB1C42121951F1000148BF7047B619C6
:10219000524141EB0101A3F1010370474FEA14459D
:1021A0004FEA114724EA054621EA074C05FB07F1EF
:1021B00006FB07F70CFB06F24FF0000605FB0CFCD4
:1021C00012EB074241EB174112EB0C4251EB1C4161
:1021D00048BF7047921841EB0101A3F1010370471A
:1021E00010B50F2000F014F804460E2000F010F88F
:1021F00004EB002004F07AFF6FF00B0105F030F9DA
:10220000BDE81040014904F085BF00000000B44360
:102210001FB500218DF80C104FF49673012203A90D
:102220008DE80E00134602466C21034800F052FE72
:102230009DF80C0004B010BD3C010020FEE7704783
:1022400072B6FEE706490020C8610648016941F000
:1022500004010161016941F0400101617047000022
:10226000A802002000200240064A0021D161064950
:102270000A6942F002020A614861086940F04000C0
:1022800008617047A802002000200240044B002291
:10229000DA61044A136943F0010313610180704756
:1022A000A80200200020024014480022C168CB068A
:1022B000134904D5CA6942F00202CA611022C368F8
:1022C0005B0705D5CB6943F00103CB6142F0040203
:1022D000C369DB0707D0CB6943F00403CB61C16955
:1022E00021F00101C161A2F58071013901D0C26004
:1022F0007047C16921F00101C161704700200240AF
:10230000A802002070B5054600F0B6FA0646114C4A
:1023100009E0681C07D025B100F0AEFA801BA84286
:1023200001D9032070BDE068C007F2D1E0688006E3
:1023300001D52020E060E068C00605D4E069C00750
:1023400002D1E068400703D5FFF7AEFF012070BD62
:10235000002070BD0020024008C8521E08C192B281
:10236000FAD270472DE9F843164688460546002400
:1023700000F070F9284600F02BF8074605EB8600C0
:1023800000F026F81149024600208F600860D01B3B
:10239000012202EB9020C86069460C4800F0B6F8B4
:1023A00040B90DE058F8242000232946022000F00F
:1023B00011F918B100F0FEF8BDE8F883641C2D1D7A
:1023C000B442EFDB00F0FCF80020F5E798020020B3
:1023D0000A4B10B500215A0403EB8124844207D92B
:1023E00002EB8124844203D8880200F1006010BD12
:1023F000491C8029F0DB002010BD0000000400080B
:1024000010B590F821100022022905D00421816323
:1024100080F82020012010BD01680B6823F00E0316
:102420000B6001680B6823F001030B6090F84030EB
:10243000C46B012101FA03F3636080F8211080F876
:102440002020104610BD000010B590F82110002487
:10245000022903D00421816301243DE001680A6858
:1024600022F00E020A6001680A6822F001020A6086
:102470001A4A0168914201D1012121E0174A143220
:10248000914201D110211BE0144A2832914201D11E
:10249000891515E0114A3C32914201D189140FE0AF
:1024A0000E4A5032914202D14FF4803108E00B4A7B
:1024B0006432914202D14FF4801101E04FF08071FB
:1024C000064A083A5160012180F82110002180F865
:1024D0002010416B01B18847204610BD0800024022
:1024E00090F821007047000070B5044600F0C4F970
:1024F0000546601C02D004480078044400F0BCF992
:10250000401BA042FAD370BD640000202DE9F047C3
:10251000054626480F460126017E01290FD00121DC
:10252000814601762868DFF888804CF25034022812
:1025300008D0A2462046FFF7E5FEA8B131E0022010
:10254000BDE8F0872046FFF7DDFE08BB0120FFF75E
:1025500079FE2046FFF7D6FED8F81010064621F087
:102560000401C8F810101CE04FF0FF303860AC6870
:1025700011E02046FFF778FE5046FFF7C3FED8F87B
:102580001010060021F00201C8F8101001D03C60C4
:1025900007E004F58064D5E9020100EB8120A04248
:1025A000E7D8002189F818103046C9E7A8020020B2
:1025B000002002400148C06970470000A8020020C6
:1025C0000348016941F0800101610020704700006B
:1025D000002002402DE9F05F07461C488846002491
:1025E000017E15461E46012909D00121814601764A
:1025F0004CF2503A5046FFF785FE18B122E0022017
:10260000BDE8F09F012F02D0022F00D00427D3464F
:10261000DFF83CA0220128463146FDF7E7FD81B2F4
:1026200008EB4400FFF732FE5846FFF76BFEDAF87E
:10263000102022F00102CAF8102018B9641CE4B27C
:10264000BC42E7D3002289F81820D9E7A80200206D
:1026500000200240064900200A69120607D5054AF3
:102660004A60054A4A600969090600D50120704799
:102670000020024023016745AB89EFCD2DE9F84FDB
:10268000DFF8B8910024A9F1040B23460F2709F1C4
:10269000040AABF1040EC9E00125A5402A40AA4274
:1026A0007DD1674ED1F804C0ACEB0608B44532D0FA
:1026B00014DCBCF1030F3AD009DCBCF1000F2AD0C6
:1026C000BCF1010F1CD0BCF1020F31D11DE0BCF1F7
:1026D000110F17D0BCF1120F2AD119E0B8F5881FDD
:1026E00019D006DCB8F5803F15D0B8F5801F1FD192
:1026F00011E0B8F5001F0ED0B8F5041F18D10AE09C
:10270000CB6815E0CB681B1D12E0CB6808330FE0E7
:10271000CB680C330CE08B682BB1012B4FF0080316
:1027200003D0456104E0042302E0056100E00023DA
:10273000FF2A01D8064601E000F104064FEA8405AD
:1027400001D9A5F12005D6F8008007FA05FC28EA92
:102750000C0803FA05F548EA0508C6F800804D683C
:10276000ED0062D5374DAE6946F00106AE61AD6948
:1027700024F0030605F001050095334D06EB050C2A
:10278000DCF80850A607360F07FA06F825EA080510
:10279000DFF8B880404503D14FF0000817E044E06F
:1027A000DFF8AC80404502D14FF001080FE0DFF8C0
:1027B000A480404502D14FF0020808E0DFF898807D
:1027C000404502D14FF0030801E04FF0040808FA39
:1027D00006F848EA0508CCF808804D68D9F800608A
:1027E000ED024D4601D5164300E096432E604D683C
:1027F000DAF80060AD02554601D5164300E0964375
:102800002E604D68DBF80060AD035D4601D51643D0
:1028100000E096432E604D68DEF80060ED037546DB
:1028200001D5164300E096432E60641C0D682A46CD
:10283000E5407FF431AFBDE8F88F000008040140A7
:10284000000011100010024000000140000801408B
:10285000000C01400010014000140140C26821EA50
:1028600002030A4043EA0241016170470AB1016173
:1028700070470904FBE700000148806870470000CA
:102880006400002070470000012901D0FFF7D8BC88
:1028900001230322014900F0CEBC000060000020AB
:1028A0002DE9F041016804464A694E6890F83E00FF
:1028B0000025D743FA050BD4F243D20508D46FF4B0
:1028C000807201254A6121680A6842F400420A6068
:1028D000B90508D4F143C90505D422686FF4007125
:1028E00045F002055161790525D4F143C90522D48B
:1028F000638D94F83D10226B202808D13BB9212923
:1029000010D029290ED0282901D1212A0AD02268E5
:102910006FF48061516145F00405102806D040280D
:1029200004D008E0204602F0ABFA04E02068016819
:1029300041F400710160380508D4F043C00505D4A6
:1029400021686FF4006045F008054861002D07D04C
:10295000206C284320642046BDE8F04101F050BEC1
:10296000BDE8F0812DE9F047026800215368C66A8E
:1029700090F83E4090F83D50102C12D0402C10D0D2
:10298000046C002C7DD05469E443A6077AD4DE435E
:10299000B60577D4036C03B19169BDE8F04702F046
:1029A0004BBA976951694FF42A0CC9435FEAC17861
:1029B0004FF02A4904D066452AD04E4528D010E071
:1029C000DE43B6050DD4C16A614501D1012103E0A2
:1029D000C16A494501D10821C162BDE8F04702F052
:1029E000F9B80E0716D4DE43B60513D4416CC9B24C
:1029F0001161416B09B1896A29B9816B002907D03E
:102A0000896A002904D00068416841F4006141608E
:102A1000BDE8F0878E0706D4DE43B60503D4BDE8D3
:102A2000F04702F02BB8FE43526876074FEA025295
:102A30001DD4002AECDB0A0608D4DA43520505D47B
:102A4000490705D5BDE8F04701F0BCBF4907DFD411
:102A5000D9438905DCD4212D05D0402CD8D1BDE83F
:102A6000F04702F0FDB8BDE8F04701F069BF002A69
:102A7000CEDB4A060BD4DA43520508D4490708D501
:102A800001E00DE00EE0BDE8F04701F0E5BE4907CA
:102A9000BED4D9438905BBD4BDE8F04701F073BE6D
:102AA000916970E7E10606D4D943890503D4BDE8EE
:102AB000F04702F02DBA2821212D27D0292D25D02D
:102AC000650655D4DD436D0552D4640752D590F8A0
:102AD0003D30448D002C9BD01269446A2270426ABA
:102AE000521C4262428D521E4285428D002A8FD175
:102AF0002A2B8DD10268536823F48063536022220D
:102B0000026380F83D1000F081FB81E7250623D4A5
:102B1000DD436D0520D4640720D590F83D30448D09
:102B2000002CF2D0446A24781461426A521C42623A
:102B3000428D521E4285428D002AE6D1292BE4D1D6
:102B40000268536823F4806353602122026380F893
:102B50003D1000F06FFB5BE76107D6D4D9438905D0
:102B6000D3D4418D0029D0D0416A097811610AE09F
:102B70006107CAD4D9438905C7D4418D0029C4D07F
:102B80001169426A1170416A491C4162418D491EB6
:102B900041853DE790F83D10202901D00220704783
:102BA000282180F83D1001680A68D20703D10A681D
:102BB00042F001020A6001680A6842F480620A6019
:102BC0000068416841F44071416000207047FFF7A0
:102BD000E1BF000070B5040025D094F83D00002549
:102BE00020B984F83C50204600F09CFA242084F858
:102BF0003D002068016821F0010101602068016842
:102C000041F4004101602068016821F40041016045
:102C100000F07EFC4D4A6168914201D84C4900E0C9
:102C20004C49884201D2012070BD4B492368B0FB5A
:102C3000F1F15E6826F03F060E435E6063689342E2
:102C400006D94FF4967359434FF47A73B1FBF3F1FD
:102C50002368491C1E6A26F03F06314319626168E9
:102C6000914210D84900401EB0FBF1F2521CC2F351
:102C70000B02042A01D2042022E0B0FBF1F0401C38
:102C8000C0F30B001CE0A268F2B301EBC10303EB3D
:102C90000116431EB3FBF6F35B1C43F480431B0594
:102CA00049D092B301EBC10202EB0111401EB0FB0F
:102CB000F1F0401CC0F30B0040F4804040F40040B1
:102CC0002168CA694CF6FF739A431043C861D4E97E
:102CD000071001432068026822F0C002114301601E
:102CE000D4E9030101432068826848F2FF339A4324
:102CF00011438160D4E9050108432168CA6822F0C4
:102D0000FF021043C86001E00EE016E02068016891
:102D100041F0010101602564202084F83D00256315
:102D200084F83E50002070BD01EB4106431EB3FB0A
:102D3000F6F35B1CB3E70120C2E701EB4101401E43
:102D4000B0FBF1F0401CC0F30B00B7E7A086010018
:102D500080841E0000093D0040420F002DE9FF4F16
:102D600081B089460446FFF787FD054694F83D008B
:102D70004FF0000820287DD1192301225049204618
:102D8000009502F073F9002874D194F83C000128F2
:102D900070D0012084F83C0020680168C90703D185
:102DA000016841F0010101602068016821F40061BF
:102DB0000160242084F83D00002626644148E0623A
:102DC0004FF0011B20272068016841F480710160E9
:102DD0000095002259462046049B02F047F950B165
:102DE00020680068C00502D54FF4007020640320FD
:102DF00005B0BDE8F08F216809F0FE000861FFF71B
:102E00003BFD2168054648694969C0F34000C1F3AC
:102E100080214FF0A00A0FE0FFF72EFD411B049820
:102E2000814200D808B984F83DA021684869496901
:102E3000C0F34000C1F3802194F83D20A02A02D0C5
:102E400008B90029E8D084F83D7020684169C94379
:102E5000890716D4016841F4007101602068416956
:102E600080691923012216492046009502F0FEF8D8
:102E7000B8B900E021E084F83D7084F83C6000209F
:102E8000B6E7016841F40071016021686FF4806069
:102E90004861192301220A492046009502F0E6F80C
:102EA00008B10120A4E7039808F1010880458AD3FE
:102EB00084F83D7084F83C60F3E7022098E7000056
:102EC000020010000000FFFFFFF764BE704770476C
:102ED000704770472DE9FF4F83B00025DDE9107979
:102EE0009A4693460446DDF848800095FFF7C4FCF7
:102EF000064694F83D0020287CD1192301228549FB
:102F00002046009602F0B2F80028F5D194F83C0073
:102F100001286FD0012084F83C0020680168C907AF
:102F200003D1016841F0010101602068016821F4CA
:102F300000610160222084F83D00402084F83E00BA
:102F400025646762A4F82A90608D20857248E0624B
:102F5000CDE9008653465A462046049901F0D4FE36
:102F600000287DD1208DDFF8B491202768B1012899
:102F700014D00228206801681ED041F480610160ED
:102F80002068416980690090B6E0206841698169E4
:102F90000091016841F400710160ADE020680168B2
:102FA00021F48061016072B62068416981690091F5
:102FB000016841F400710AE041F40061016072B6F9
:102FC0002068416981690091016821F48061016094
:102FD00062B691E0032868D801280CD00228434645
:102FE0004FF000024946204600960FD002F03EF80E
:102FF000B0BB10E08BE032464146204602F0DCF8E0
:1030000070BB20680069616A08706CE002F02EF8FD
:1030100030BB72B634E02068016821F48061016041
:1030200072B620680069616A0870606A401C60625C
:10303000208D401E2085608D401E6085384846F2F8
:10304000A8110068B0FBF1F0C0EBC00000EB8000FD
:103050000090401E009008D020684069C04300E006
:1030600029E040070CD50098F3E744F8305F677318
:10307000A573206940F02000206162B625731AE034
:103080002068016841F40071016020680069616A8C
:103090000870606A401C6062218D491E2185618D27
:1030A000491E618562B621681BE0324641462046D2
:1030B00002F082F818B1012007B0BDE8F08F206857
:1030C0000069616A0870606A401C6062218D491E57
:1030D0002185618D491E618521684A69D243520765
:1030E0000AD409690170606A401C6062208D401E2C
:1030F0002085608D401E6085208D00287FF46AAF9A
:1031000084F83D7084F83E5084F83C50D4E70220A7
:10311000D2E70000020010000000FFFF04000100E1
:103120007000002030B585B000210091019102911E
:103130000391314D0368314C122103223048AB42D8
:103140002CD1A36943F00803A361A369039203F0A0
:10315000080304931302CDE900316946FFF78EFAA4
:103160002848416841F0E06141F002014160E069B6
:1031700040F40010E061E069002200F400100490C7
:1031800011461F2000F0FCF81F2000F0EBF8002291
:103190001146202000F0F4F8202028E01A4DAB4220
:1031A00027D1A36943F00803A361A369039203F045
:1031B000080304934FF44063CDE900316946FFF7FB
:1031C0005DFAE06940F48000E061E069002200F40B
:1031D000800004901146212000F0D2F8212000F058
:1031E000C1F800221146222000F0CAF8222000F087
:1031F000B9F805B030BD0000005400400010024096
:10320000000C0140000001400058004010B5074884
:10321000064C4FF40051B0F80100241F40BA608002
:103220000348FFF71BFB0120207010BD6000002049
:1032300000100140704738B590F83D502824AC4349
:1032400031D161B15AB190F83C40012C2BD001240E
:1032500080F83C4004682568ED0702D005E00120B5
:1032600038BD256845F0010525600468256825F40A
:10327000006525602A2480F83D40202480F83E40E7
:103280000024046441624285418D0185C362016866
:103290004A698A69009280F83C40486840F4E060DE
:1032A0004860204638BD022038BD000002488168D1
:1032B000027811448160704764000020074810B50F
:1032C000016841F010010160032000F079F803204B
:1032D00000F006F800F024F8002010BD00200240A5
:1032E00070B50D4D04464FF47A712878B1FBF0F0BB
:1032F0000A490968B1FBF0F000F0E0FA48B9102C77
:1033000007D200222146501E00F03AF800206C60DF
:1033100070BD012070BD000064000020700000201E
:103320000E4808B5816941F001018161816901F0B0
:1033300001010091C16941F08051C161C06900F093
:1033400080500090052000F03BF80548416821F0CE
:10335000E06141F00071416008BD000000100240D2
:1033600000000140002809DB00F01F02012191400C
:103370004009800000F1E020C0F800117047000013
:10338000F0B40E4B1B680C46C3F30223C3F10705D0
:10339000042D00D90425191D072901D2002300E0BE
:1033A000DB1E012606FA05F1491E214099409E4088
:1033B000761E16403143F0BC02F0C9BD0CED00E0B2
:1033C000064900F0070208684FF6FF03184040EA7C
:1033D0000220034A10430860704700000CED00E033
:1033E0000000FA052DE9F0470F46050061D0434E75
:1033F000306800F00700B84209D2306820F00700BA
:1034000038433060306800F00700B84251D1286876
:103410003B4C810712D5400703D5606840F4E0605B
:1034200060602878000703D5606840F460506060F1
:103430006068A96820F0F000084360602878C00741
:1034400028D06868012810D02168022810D0890788
:1034500000292EDA616821F0030101436160FFF762
:103460000BFA804641F288390DE021688903EFE7C5
:103470008901EDE7FFF700FAA0EB0801494502D901
:103480000320BDE8F0876068696800F00C00B0EBCD
:10349000810FEFD1306800F00700B8420BD93068D7
:1034A00020F0070038433060306800F00700B84271
:1034B00001D00120E5E72878400705D56068E96874
:1034C00020F4E060084360602878000706D5606853
:1034D000296920F4605040EAC100606000F038F8CB
:1034E0006168084AC1F30311515CC840064908608D
:1034F00006480068FFF7F4FE0020C2E70020024003
:1035000000100240FA7400087000002068000020DB
:103510000448054900684968044AC1F30221515C26
:10352000C840704770000020001002400A75000873
:103530000448054900684968044AC1F3C221515C46
:10354000C840704770000020001002400A75000853
:103550000E4A51680E4801F00C03042B11D0082BC1
:103560000FD10C48C1F38343C903C05C0AD551682D
:10357000084AC1F34041921E515C054A5043B0FBDA
:10358000F1F07047044948437047000000100240C2
:1035900000127A00EA74000800093D002DE9F84F96
:1035A000040070D02078C04DC00749D06868C0F3CF
:1035B0008100012807D06868C0F38100022809D182
:1035C0006868C00306D52868800339D5606800287C
:1035D000E7D035E06068B0F5803F0BD010B1B0F5B2
:1035E000A02F11D0286820F480302860286820F4AB
:1035F000802002E0286840F480302860606890B144
:10360000FFF73AF906460AE0286840F4802028606F
:10361000F0E700BFFFF730F9801B642873D82868F3
:103620008003F7D50CE0FFF727F9064605E000BF59
:10363000FFF722F9801B6428F0D828688003F7D4AC
:1036400020789A4E80074FF001094FF0000839D5D5
:10365000686810F00C0F07D06868C0F3810002287A
:1036600009D16868C00306D42868800714D520698A
:10367000012808D110E02069B0B1C6F80090FFF72A
:10368000FBF8074605E00AE1FFF7F6F8C01B022841
:10369000C4D828688007F7D52868616920F0F80049
:1036A00040EAC10028600DE0C6F80080FFF7E4F8AA
:1036B000074604E0FFF7E0F8C01B022823D828687B
:1036C0008007F7D4207800072CD57948A169D9B1B3
:1036D000C0F80090FFF7D0F8074604E0FFF7CCF8F9
:1036E000C01B02280FD8686A8007F7D571484FF4CD
:1036F000FA510068B0FBF1F0009000BF0098411E45
:103700000091FAD20EE080E0C0F80080FFF7B4F834
:10371000074604E0FFF7B0F8C01B022875D8686AB6
:103720008007F7D42078400760D5E8690027C000FB
:1037300008D4E86940F08050E861E869012700F0AA
:10374000805000905C480168C90513D40168834625
:1037500041F480710160FFF78FF8824606E000BFF8
:10376000FFF78AF8A0EB0A0064284ED8DBF80000C7
:10377000C005F5D5E06801280AD008B1052813D0A6
:10378000286A20F001002862286A20F0040002E084
:10379000286A40F001002862E06841F2883B98B155
:1037A000FFF76AF882460BE0286A40F004002862BE
:1037B000EEE700BFFFF760F8A0EB0A0159455AD8C1
:1037C000286A8007F6D50CE0FFF756F8824605E038
:1037D000FFF752F8A0EB0A0159454CD8286A800738
:1037E000F6D41FB1E86920F08050E861E06988B341
:1037F0006968C1F38101022944D00228C6F86080BB
:1038000004D0FFF739F8044638E034E0FFF734F825
:10381000074604E0FFF730F8C01B02282BD82868C1
:103820008001F7D4206AB0F5803F05D16868A168AF
:1038300020F4003008436860D4E90801084369684F
:1038400021F4741108436860C6F86090FFF714F81B
:10385000044606E025E000BFFFF70EF8001B022833
:1038600009D828688001F7D51BE000BFFFF704F8EE
:10387000001B022802D90320BDE8F88F28688001C8
:10388000F4D40EE00128F7D06868226A00F4803191
:10389000914204D1616A00F47010884201D0012085
:1038A000EAE70020E8E70000001002400000424282
:1038B00080044242700000200070004010B5401E9D
:1038C000B0F1807F01D3012010BD4FF0E024606192
:1038D0000F21601702F03BFB0020A0610720206150
:1038E000002010BD7047704710B590F83C20012AA9
:1038F00022D0012280F83C20CA688C6822F44072F1
:1039000022434C6822F4806222430C6822F4006255
:1039100022430C6922F4805222434C6922F4005263
:103920002243C969002322F480420A4301684A64A1
:1039300080F83C30002010BD022010BD70B590F81A
:103940003C20012A26D0012480F83C40022280F845
:103950003D2003685A689D6822F070060A68324369
:103960005A600D4B02689A4208D0B2F1804F05D0E0
:103970000A4B9A4202D00A4B9A4204D1496825F078
:1039800080031943916080F83D40002180F83C108D
:10399000084670BD022070BD002C014000040040AC
:1039A0000008004010B5040003D094F83D0010B1A9
:1039B00007E0012010BD002084F83C00204600F004
:1039C0001FF8022084F83D00211D206802F044F811
:1039D000012084F8460084F83E0084F83F0084F813
:1039E000400084F8410084F8420084F8430084F8E1
:1039F000440084F8450084F83D00002010BD00001C
:103A000008B500680F4988421AD10F48816941F40E
:103A1000006181618069012200F400600090002152
:103A20001920FFF7ADFC1920FFF79CFC01220021B3
:103A30001B20FFF7A5FCBDE808401B20FFF792BC48
:103A400008BD0000002C01400010024090F83D101D
:103A5000012901D001207047022180F83D10006843
:103A60000B49884208D0B0F1804F05D009498842FF
:103A700002D00949884204D1816801F00701062972
:103A800003D0016841F0010101600020704700008F
:103A9000002C0140000400400008004001680A6A50
:103AA00041F211131A4207D10A6A9B101A4203D13C
:103AB0000A6822F001020A60012180F83D1000200E
:103AC000704770B5044690F83C000025012817D0D7
:103AD000012684F83C60022084F83D00206882685A
:103AE00022F0770222F47F4282600868502838D0A2
:103AF0000DDC20284FD005DC90B3102811D14AE00E
:103B0000022070BD302846D040280AD13BE0602812
:103B10002FD070280DD0B0F5805F03D0B0F5005FD6
:103B200012D0012584F83D60002084F83C0028462E
:103B300070BDCB68D1E90121206801F0D0FF206879
:103B4000816841F0770109E0CB68D1E90121206863
:103B500001F0C5FF2068816841F480418160E1E7A0
:103B600019E0CA684968206802F06EF850212068A0
:103B700006E0CA684968206802F077F8602120688A
:103B800001F0B7FFCEE7CA684968206802F05CF828
:103B900040212068F4E7226801461046F0E77047AC
:103BA00070B50446006801694FF00005C9438907F4
:103BB00015D4C168C943890711D4E91E01610120E8
:103BC0002077206880698007204602D0FFF7E7FF52
:103BD00004E000F0C9F8204600F05BF92577206882
:103BE0000169C943490717D4C168C943490713D4B8
:103BF0006FF004010161022020772068806910F4D1
:103C0000407F204602D0FFF7CAFF04E000F0ACF886
:103C1000204600F03EF9257720680169C94309076D
:103C200016D4C168C943090712D46FF008010161B5
:103C3000042020772068C0698007204602D0FFF763
:103C4000AEFF04E000F090F8204600F022F925775E
:103C500020680169C943C90617D4C168C943C906A8
:103C600013D46FF010010161082020772068C0692B
:103C700010F4407F204602D0FFF791FF04E000F0EF
:103C800073F8204600F005F9257720680169C943DB
:103C9000C90708D1C168C943C90704D1891E016198
:103CA000204600F07DF920680169C943090609D45E
:103CB000C168C943090605D46FF08001016120463F
:103CC000FFF710FE20680169C943490609D4C1689D
:103CD000C943490605D46FF040010161204600F058
:103CE00060F920680169C94389060BD4C168C943DA
:103CF000890607D46FF0200101612046BDE87040BD
:103D0000FFF7F1BD70BD000030B585B00021009116
:103D10000191029103910068104988421CD110481A
:103D2000816941F0040181618069022400F004008E
:103D300004904FF48070CDE900040120094D0390F8
:103D400069462846FEF79AFC2002CDE90004694640
:103D500028460394FEF792FC05B030BD002C0140CC
:103D60000010024000080140704770B5044690F80A
:103D70003C0000260D4601280FD0012084F83C00AD
:103D80006AB1042A1DD0082A2FD00C2A3FD0012660
:103D9000002084F83C00304670BD022070BD2068D1
:103DA00001F0B0FE2068816941F00801816120685E
:103DB000816921F004018161206881692A691143C8
:103DC00011E0206801F0C6FE2068816941F40061BD
:103DD00081612068816921F4806181612068816945
:103DE0002A6941EA02218161D2E7206801F0DEFE02
:103DF0002068C16941F00801C1612068C16921F0F2
:103E00000401C1612068C1692A69114311E0206879
:103E100001F0F8FE2068C16941F40061C1612068C9
:103E2000C16921F48061C1612068C1692A6941EAE0
:103E30000221C161ACE710B5040003D094F83D0045
:103E400010B107E0012010BD002084F83C0020469E
:103E500000F01EF8022084F83D00211D206801F0CA
:103E6000FBFD012084F8460084F83E0084F83F0002
:103E700084F8400084F8410084F8420084F843004C
:103E800084F8440084F8450084F83D00002010BD0B
:103E90007047704710B50446022249B104290ED07C
:103EA000082913D094F84100012816D0012010BD34
:103EB00094F83E000128F9D184F83E200FE094F8F0
:103EC0003F000128F2D184F83F2008E094F8400038
:103ED0000128EBD184F8402001E084F84120012240
:103EE000206801F0EFFD0F492068884203D1426C41
:103EF00042F4004242642068884208D0B0F1804F0A
:103F000005D00949884202D00849884204D1816815
:103F100001F00701062903D0016841F001010160A9
:103F2000002010BD002C01400004004000080040AB
:103F300030B504460D460068002201F0C3FD174B62
:103F400041F2111120688A10984209D1036A0B428C
:103F500006D1036A134203D1436C23F40043436444
:103F60002068036A0B4206D1016A114203D101683D
:103F700021F00101016001203DB1042D08D0082D80
:103F800009D084F84100002030BD84F83E00FAE7F3
:103F900084F83F00F7E784F84000F4E7002C014084
:103FA0007047704770477047F8B501680446086865
:103FB000CA684B6910F00F0F4FF0000559D003F09D
:103FC000010602F49077374365D0C10705D0D105CB
:103FD00003D5616C41F001016164410705D5D90742
:103FE00003D0616C41F002016164810705D5D907F6
:103FF00003D0616C41F004016164010707D502F050
:104000002001314303D0616C41F008016164616CAF
:1040100000293AD0800604D5900602D5204601F04A
:1040200065FE20684069616CC0F38010090700D408
:1040300060B3204601F033FE20684069400621D578
:104040002068143050E8001F21F0400140E80012C1
:10405000002AF5D1E06BA8B16D494163E06BFEF732
:10406000F3F9002811D0E06B416B01B0BDE8F040DE
:10407000084783060FD593060DD52046BDE8F840C6
:1040800001F034BE2046FFF78EFFF8BD2046FFF753
:104090008AFF6564F8BD266B2023012E7CD1C606FD
:1040A0007AD5D60678D508684868009048694FF0F8
:1040B0000206400640D5E16B086840680004000C29
:1040C000E8D0A28D8242E5D9E085886920282DD0EC
:1040D00020680C3050E8001F21F4807140E8001285
:1040E000002AF5D12068143050E8001F21F00101AA
:1040F00040E80012002AF5D12068143050E8001F73
:1041000021F0400140E80012002AF5D184F8423045
:10411000256320680C3050E8001F21F0100140E8B2
:104120000012002AF5D1E06BFEF76AF96663A08DF4
:10413000E18D401A81B22AE0A08DE18D401A81B252
:10414000E08D0028A6D00029A4D022680C3252E8C5
:10415000000F20F4907042E80007002FF5D120688E
:10416000143050E8002F22F0010240E80027002F11
:10417000F5D184F84230256320680C3050E8002FD8
:1041800022F0100240E80023002BF5D166632046A0
:10419000FFF708FFF8BDFFE705062BD5150629D563
:1041A00094F841002128F5D1A068B0F5805F01D1D5
:1041B0002069B0B1206A411C216221680078486002
:1041C000E08C401E0004000CE084E3D12068C1684C
:1041D00021F08001C1602068C16841F04001C160E8
:1041E000D8E7206A0088C0F308004860206A801C75
:1041F0002062E5E74006CDD55006CBD5CA682046FB
:1042000022F04002CA6084F8413000F078F9C1E73A
:104210008F5C000870B5040004D094F841000025BC
:1042200010B106E0012070BD84F84050204600F037
:1042300023F8242084F841002068C16821F400514B
:10424000C160204601F0B4FD2068016921F490416D
:1042500001612068416921F02A0141612068C1683B
:1042600041F40051C1606564202084F8410084F865
:1042700042006563002070BD30B585B00024009415
:104280000194029403940068184988422BD118487D
:10429000C16941F40031C161C16901F40031049187
:1042A000816941F0040181618069124D00F00400D0
:1042B000049004200090022001900320039069469E
:1042C0002846FEF7DBF90820CDE9000469462846B8
:1042D0000294FEF7D3F9002211462620FFF750F88A
:1042E0002620FFF73FF805B030BD00000044004035
:1042F000001002400008014090F84230202B01D00D
:104300000220704721B11AB10023036301F0ACBD54
:10431000012070472DE9FF4100684A4988427CD15D
:10432000494C00260121A27904F14003672A22D0DA
:104330000DDC45484FF07E514FF06A07856800F16B
:104340004000612A80691BD0622A05D11CE00A2046
:10435000722A0AD0732A0BD03B480A2A407825D00B
:104360003A490A54401C60705FE0A071A1705CE0A3
:10437000A071A67059E0E170BDE8FF4102F00EB8EF
:104380001E4602F00FFE02E01E4602F08FFFB061F3
:104390002D49A771082240312846FDF7E3FF2B493C
:1043A00008222A39A068FDF7D7FF3EE008283BD94C
:1043B00025481B1D5430011F0A1F151F039000952F
:1043C000CDE901210C3A22A12048FBF7E5FF0822A4
:1043D000A5F10801A068FDF7C5FF1C4908222A398C
:1043E000A068FDF7B9FF194D2A3D2868A0616868EB
:1043F000E061A8682062E86802F03CFE207128694C
:1044000002F038FE6071686902F050FEC0B22070A0
:10441000A5F59C714000C86000E010E001F00EFAC4
:1044200023210A48FBF7DEFF667004B00649BDE8A9
:10443000F04106480122891D7238FFF75DBFBDE8D3
:10444000FF81000000440040000000204A020020DC
:1044500025662C25662C25662C25662C25662C25A4
:10446000660000002DE9F843044690F841001F461D
:1044700016460D46202802D00220BDE8F8837DB103
:1044800076B100206064212084F84100FEF7F4F941
:10449000A6848046E684A068B0F5805F02D003E081
:1044A0000120EAE7206910B12E4600250EE0002623
:1044B0000CE08021204601F0F2FCA0B9AEB116F864
:1044C000010B21684860E08C401EE084E08C43468C
:1044D0004FF0000200970028EBD14FF0400120463A
:1044E00001F0DDFC30B10320C7E735F8020BC0F363
:1044F0000800E6E7202084F841000020BDE770476F
:10450000FEE700000148FEF7CBB90000E8000020FC
:104510000148FEF727BA0000E80000200148FEF736
:10452000BFB900003C0100200148FEF71BBA0000A3
:104530003C01002038B5406A002190F83D202B4B0B
:1045400046F2A8141B68B3FBF4F3C3EBC30303EBFD
:10455000830300933BB15B1E009303681B689B05BC
:1045600005D5009BF6E7036C43F020030364436B1F
:1045700003B19962836B03B1996203681C6824F4E8
:1045800080641C604185436B03B15963836B03B145
:10459000596303681C6824F001041C6090F83D40D6
:1045A0002023602C0BD0282434EA02020FD080F89C
:1045B0003D3080F83E1000BFFEF709FB38BD80F8A3
:1045C0003D3080F83E100164FEF75CF938BD0268AA
:1045D000136843F0010313600268136843F48063B7
:1045E0001360016380F83D40E6E7000070000020A2
:1045F00000684169C943090601D40021016170477F
:1046000070B5044690F83D0094F83E10102901D092
:10461000402906D1222804D121680A6822F40062C8
:104620000A60282131EA00024FF000054FF0200611
:1046300026D021684968090505D4602803D084F88C
:104640003D6084F83E50256320684168090537D5F0
:10465000416821F400614160606B90F821203C4981
:10466000012A11D04163606BFDF7EEFE38B320687C
:10467000016821F00101016084F83D60606B1CE07D
:10468000256384F83D10DFE7A06B4163A06BFDF765
:10469000DBFEA0B120684169C943490605D4006921
:1046A000616A0870606A401C60622068016821F0DD
:1046B0000101016084F83D60A06B416B884710E008
:1046C00094F83D10602910D04169C943490605D4CA
:1046D0000069616A0870606A401C60622046FEF7EB
:1046E00076FA206CC1071CD115E084F83D60256482
:1046F0004169C943490605D40069616A0870606A66
:10470000401C60622068016821F0010101602046C0
:10471000FEF7B8F8E5E7810703D4410701D40007A5
:1047200004D52068416821F4E061416094F83D00BF
:10473000216C49070BD5282809D10648E06225637A
:1047400084F83D6084F83E502046FEF7BDFB70BD06
:10475000354500080000FFFF01684A69D243520551
:104760000FD46FF480624A61002140F8301F20228C
:1047700042738173026942F00402026101730120F5
:1047800070470020704710B5C26A438D0168042B42
:1047900006D0438D032B08D0438D022B1DD012E091
:1047A0004A6822F480624A600CE04B6823F480631C
:1047B0004B60042A06D0022A04D001680A6822F459
:1047C00080620A6001680969426A1170416A491C85
:1047D0004162418D491E418510BD012A30D0102A09
:1047E0002ED0042A30D0022A2ED00A6842F4007259
:1047F0000A6001680969426A1170416A491C416294
:10480000428D521E4285026812690A70416A491C33
:104810004162418D491E418501684A6822F4407217
:104820004A60202180F83D1090F83E200021402A67
:1048300080F83E100CD012210163FEF747FB10BD3B
:104840000A6822F48062D3E70A6842F48062CFE704
:104850000163FEF73DFB10BD38B590F83D102229ED
:104860000FD1418D03290DD901680969426A117080
:10487000416A491C4162418D491E4185418D032990
:1048800006D038BDC26A022A02D0012906D029B159
:104890000068416821F48061416038BD274946F2D3
:1048A000A81300220968B1FBF3F101EB810100912B
:1048B00001682023009C641E009422D00C68A4058B
:1048C000F8D40C6824F480640C6001684C6824F40B
:1048D000E0644C6001680969446A2170416A491CBE
:1048E0004162418D491E418580F83D3090F83E106F
:1048F00080F83E2040291DD012210163FEF7E6FA20
:1049000038BD046C44F0200404644C6824F4E06472
:104910004C6001680969446A2170416A491C41621E
:10492000418D491E418580F83D3080F83E20FEF7DC
:104930004EF938BD0263FEF7CBFA38BD7000002097
:1049400010B5C26A90F83D1021290BD1418D51B1AB
:10495000416A026809781161416A491C4162418DCE
:10496000491E418510BD20230021082A13D0202A8A
:1049700011D012F5803F0ED00268546824F4E06430
:1049800054601122026380F83E1080F83D3000BF71
:10499000FEF79DFA10BD0268546824F4E064546088
:1049A0000268146844F400741460016380F83D30B8
:1049B00090F83E2080F83E10402AE9D1FEF789FAAF
:1049C00010BD000010B590F83D1090F83E30C26A5E
:1049D000048DB4B1212903D0402B11D122290FD14C
:1049E000418DE1B390F83E10402942D0416A0268FF
:1049F00009781161416A491C4162418D491E418516
:104A000010BD2129E8D120230021082A13D0202A13
:104A100011D012F5803F0ED00268546824F4E0648F
:104A200054601122026380F83E1080F83D3000BFD0
:104A3000FEF74DFA10BD0268546824F4E064546037
:104A40000268146844F400741460016380F83D3017
:104A500090F83E2080F83E10402AE9D100E002E0C4
:104A6000FEF737FA10BD0068416821F480614160AB
:104A700010BDBDE8104000F0F3B8000078B590F824
:104A80003E50C26A046B90F83D6000230168222EFC
:104A900073D1066D0EB9402D6FD0056D1DB9056936
:104AA000B5F5404F1BD0458D95B3468D484D012E31
:104AB00020D0448D022C4DD00C6844F480640C60EE
:104AC00001684C68240579D5AA4273D0012A71D0B7
:104AD000082A6FD0102A6DD0202A6BD06EE04A6968
:104AE0008A6900920A6842F480720A60016D491C6A
:104AF000016578BDAA4214D10A6822F480620A6076
:104B000001684A68120504D50A6822F4806217E039
:104B1000FFE74A698A6900920A6842F400720A60F3
:104B200050E0082A10D0202A0ED0122C0AD0042AD5
:104B300003D0022A01D0102AE6D10A6842F480622A
:104B40000A603BE0012ADFD00A6822F480620A6032
:104B50000168DEE7042A11D0022A0FD0102A0DD0F6
:104B60000C6844F400640C6001684C698C69009422
:104B70000C6824F480640C6008E025E00C6844F4C0
:104B800080640C6001684C698969009101684C6817
:104B9000240517D5AA4207D0012A05D0082A03D038
:104BA000102A01D0202A0DD14A6842F480524A606E
:104BB00008E0FFE74A6842F480524A6001684A69A7
:104BC00089690091036578BD48698869009078BD5E
:104BD0000000FFFF90F83E10402910D00169B1F5A8
:104BE000804F19D0016DA9B3016D012910D1416C1D
:104BF0005FF0F10201F4407142EAD11106E0016D6B
:104C00000029416C05D0C9B241F001010068016181
:104C1000704701F0FE01F9E790F83D102129416C41
:104C200009D0C9B241F0010102681161416B29B19B
:104C3000896A49B902E001F0FE01F5E7816B0029BC
:104C4000E6D0896A0029E3D00068416841F4006138
:104C500041607047FFE7416CF02201F44071CBE7FF
:104C600010B590F83D10026D4AB1026D012A14D0C2
:104C7000026D022A16D0BDE81040FFF7B9BCC16C26
:104C80000129816C02D0C1F3072108E00268C9B292
:104C90001161016D891C016510BD816CC9B202688A
:104CA000116123E022291CD0428D0AB1212920D094
:104CB000428D002AF0D12129EED101684A6822F400
:104CC000E0624A6001680A6842F400720A600021EA
:104CD0000163202280F83D2080F83E10FEF7F9F8AD
:104CE00010BD01680A6842F480720A60016D491CB7
:104CF000D1E7416A026809781161416A491C416241
:104D0000418D491E418510BD2DE9F84F04460068CC
:104D100089460B9D01689846174641F48061016001
:104D20002068016841F48071016000954FF0011B1B
:104D30000022594620460A9B00F098F94FF4007A69
:104D400040B120680068C00501D5C4F840A0032028
:104D5000BDE8F88F216809F0FE0008612B4628495C
:104D600020460A9A00F0CAF9F0BB206841698069C0
:104D700000902A4620460A9900F056FA40B1206C6D
:104D800004283AD12068016841F40071016034E0E0
:104D9000FEB2B8F1010F09D02168380A08612A462D
:104DA00020460A9900F040FA0028E8D12068066100
:104DB0002A4620460A9900F037FA0028DFD12068F9
:104DC000016841F480710160009500225946204637
:104DD0000A9B00F04BF90028B3D1216809F0FF00CD
:104DE00040F00100086100E007E02B46044920463E
:104DF0000A9A00F083F90028AAD00120A8E7000051
:104E00000200010070B54FF40054094D06E0214640
:104E10002846FDF723FD5020FDF766FB0A230222FA
:104E20006C210448FDF79AFF0028F0D170BD000006
:104E3000001001403C01002038B50C4690F83D20A0
:104E400000212825954302680B4605D051699169D8
:104E5000009180F83C3038BD556825F48065556078
:104E6000E243540700D50121120601D5828900E0F2
:104E7000028B80F83C3092B2FDF706FD38BD000091
:104E80002DE9F04190F83D300446C26A0021202609
:104E90001E4F00686FF48065082A01D0202A01D1D6
:104EA000282B04D0212B17D04561BDE8F081E762A3
:104EB000426822F4E062426020684561206802682E
:104EC00022F480620260216384F83D6084F83E1021
:104ED0002046FDF7F9FFE8E7E7622122226384F824
:104EE0003D6084F83E10416821F4E0614160206833
:104EF00045612068016821F4806101602046FFF768
:104F000077FB2046FEF796F9CFE700000000FFFF91
:104F1000F8B590F83D6004460068416821F4E0610E
:104F200041602068002541690091016841F001015C
:104F300001602068016821F4806101602068416897
:104F4000090520D5474F222E48D02A2E46D0616B26
:104F5000096849686185618D19B1216C41F00401CE
:104F60002164416821F400614160606BFDF7B8FA8B
:104F7000012808D0606B4763606BFDF765FA10B1DC
:104F8000606B416B8847608D08B320684169C943F5
:104F9000490708D40069616A0870606A401C606251
:104FA000608D401E608520684169C943490608D468
:104FB0000069616A0870606A401C6062608D401E12
:104FC0006085608D18B1206C40F004002064206C76
:104FD00000B32046BDE8F840FFF712BBA16B09689B
:104FE00049686185618D19B1216C41F0040121642A
:104FF000416821F400614160A06BFDF771FA01285E
:10500000C1D0A06B4763A06BFDF71EFA0028BAD091
:10501000A06BB6E72A2E06D12563282084F83D0030
:105020002046FEF7F3F894F83D10202028290DD0F3
:10503000216B222901D0222E07D1256384F83D005F
:1050400084F83E502046FEF7E1F8F8BD0649E162DB
:10505000256384F83D0084F83E502046FDF734FF78
:10506000F8BD0000354500080000FFFF2DE9F047BE
:10507000984617460D460446C1F30746DDF82090D2
:105080002AE000BFB8F1FF3F26D0FDF7F5FBA0EB0B
:105090000901414502D8B8F1000F1DD12068012E49
:1050A00016D0806925EA00000004000C12D0002010
:1050B000B84211D1002044F8300F20216173A07351
:1050C000216941F02001216120730120BDE8F087B2
:1050D0004069E7E70120EBE72068012E0AD08069EC
:1050E00025EA00000004000C06D00020B842C9D018
:1050F0000020EBE74069F3E70120F7E72DE9F047EF
:10510000984616460D4604464FF000094FF0200A17
:10511000C1F3074723E020684069C043400515D428
:105120002068016841F40071016021686FF48060BB
:105130004861C4F8309084F83DA084F83E90216C1A
:1051400041F00401216484F83C9021E0701C06D0F9
:10515000FDF792FBA0EB0800B04203D816B1012F77
:105160001FD021E02068012F15D0806925EA0000BA
:105170000004000C18D000BF44F8309F84F80DA044
:1051800084F80E90216941F02001216184F80C908F
:105190000120BDE8F087406925EA00000004000C0A
:1051A000EAD12068406901E02068806925EA0000B2
:1051B0000004000CAFD1ECE72DE9F041002590464A
:1051C0000E460446202728E04069C043C0060CD4A0
:1051D00054F8301B6FF01000486144F8105967779D
:1051E000A577206A2062257714E0FDF745FBA0EB48
:1051F0000800B04200D886B920684069C043400624
:105200000BD544F8305F6773A573206940F0200028
:10521000206125730120BDE8F08120684169C94300
:105220004906D1D40020F6E770B516460D4604466F
:105230001EE02046FFF790FA08B1012070BD681CFF
:1052400016D0FDF719FB801BA84200D885B920684D
:105250004069C04300060BD5002044F8300F2021E0
:105260006173A073216941F0200121612073E4E79B
:1052700020684069C0430006DBD4002070BD0000F8
:1052800070B50F4C6069E060FCF7AAFF60610546ED
:10529000E16802F00BF80B4A0B49904203DD2069EC
:1052A00001F080FE05E0094A904203D9206901F02F
:1052B000FDFF206128462169BDE8704001F0F6BF7E
:1052C0000000002000007A430000B44300007AC3CD
:1052D000F0B585B00024284800940194029403940A
:1052E000816941F010018161816901F0100104912F
:1052F000816941F020018161816901F020010491FF
:10530000816941F004018161816901F00401049126
:10531000816941F0080181618069184E00F0080040
:105320004FF400550490002229463046FDF79EFABE
:10533000134F0022C0213846FDF798FA0320CDE92B
:10534000024000950125694601953046FDF796F922
:10535000A803CDE90004694630460294FDF78EF9B2
:10536000C020CDE900050220CDE90240694638465B
:10537000FDF784F905B0F0BD0010024000100140B7
:10538000000801400D4810B50B4901600C4941600F
:105390000C4A0021816012785200C2604FF48042B2
:1053A000C0E904218161C1610162FDF713FC00289D
:1053B00001D072B6FEE710BD00540040E8000020A6
:1053C000A08601000000002010B596B000240F94C4
:1053D00010941194129413941C2168461494FBF7B2
:1053E00023F8202107A8FBF71FF82C482A49C0E919
:1053F00000144FF6FF71C0E9024180210461C0E949
:105400000541FEF7CFFA08B172B6FEE74FF48050BF
:105410000F900FA92148FEF754FB08B172B6FEE7C2
:105420001E48FEF708FD08B172B6FEE7139413A9F3
:105430001A481494FEF782FA08B172B6FEE76020AB
:10544000CDE9000402940394049405940022694673
:1054500012480694FEF789FC08B172B6FEE70422F2
:1054600069460E48FEF781FC08B172B6FEE7079464
:10547000089409944FF400500A94CDE90B4007A911
:1054800006480E94FEF730FA08B172B6FEE70348FC
:10549000FEF73AFC16B010BD002C01409001002030
:1054A000FEE7FEE72DE9F04F85B00446DDE912780E
:1054B000DDE91056DDE914B904F1400CDDF838A03F
:1054C0008CE80E0000200F49607002460346CDE9CB
:1054D0000001204600F0E9F86420A060494620461B
:1054E00000F0C2F88DE8E009524620460F9B00F01C
:1054F00049F9FDF7C1F9A168401A606005B0BDE83F
:10550000F08F000000E06F402DE9FC5F044640781A
:10551000002872D0FDF7B0F961688346401AA1688F
:1055200081427FD8206CD0E900718846A16C3A4650
:105530004346D1E9000101F01FFCD4E916230546DA
:105540000E463846414601F017FC81468A46D4E9AA
:105550000C012A46334601F0CFFAD4E9142300F0B7
:10556000E7FFC4E91401CDE90001207858B9D4E976
:105570000A014A46534601F0BFFADDE9002301F073
:10558000EFFBC4E91401D4E91401D4E91A2301F0B2
:10559000B1FB02D2D4E91A0108E0D4E91401D4E93C
:1055A000182301F06DFA03D2D4E91801C4E91401FB
:1055B000207840B1D4E90A012A46334601F09CFA2A
:1055C00005460E4601E000252E46D4E90E014A4666
:1055D000534601F091FAD4E9142301F0C1FB2A46A5
:1055E000334600F0A5FFD4E91A2305460E4601F024
:1055F00081FB04D2D4E91A560AE011E012E0D4E9A2
:1056000018232846314601F03BFA01D2D4E9185656
:10561000606CC0E90056C4F804B0C4E916780120F3
:10562000BDE8FC9F0020FBE710B5416C0446D1E9C2
:105630000001C4E91401236CD3E90023C4E9162353
:10564000D4E91A2301F056FB02D2D4E91A0108E08A
:10565000D4E91401D4E9182301F012FA03D2D4E9F1
:105660001801C4E9140110BD427872B1C2788A42AF
:105670000BD0C36A83F00043C362436B83F00043E3
:105680004363C36B83F00043C363C170704770B55D
:105690000446012901D0002505E06078012510B9F4
:1056A0002046FFF7C1FF657070BD2DE9F041174638
:1056B000DDE906659846044632462B4638464146A3
:1056C00001F018FB34D9C4E91A65C4E91878607888
:1056D00032462B4600282BD0616CD1E9000101F045
:1056E00009FB03D2D4E91A01626C0AE0D4E9182359
:1056F000616CD1E9000101F0C3F904D2D4E91801C9
:10570000626CC2E90001D4E91401D4E91A2301F062
:10571000F1FA02D2D4E91A0108E0D4E91401D4E97B
:10572000182301F0ADF903D2D4E91801C4E914013A
:10573000BDE8F0812DE9F0410E1E044620DDA06891
:1057400001F08AF907460D46304601F06EF93A46F7
:105750002B4600F0A9FF07460246D4E90C0E0D4681
:105760000B46714601F0C8F9C4E90C01D4E90E0EEC
:105770003A462B46714600F097FFA660C4E90E0139
:10578000BDE8F0812DE9F84F15461E46DDE90BB95D
:1057900004460022134628463146DDF828A00E9F15
:1057A00001F06EF944D3002213465046594601F0E9
:1057B00067F93DD30022134648460D9901F060F980
:1057C00036D3A770012F35D05FF0000004F8100B1E
:1057D000A4E8600C0D9964E80891A06801F03CF918
:1057E0000022154B00F060FFC4E90A5607468846C0
:1057F00052465B46009601F07FF9C4E90C0106466B
:105800008A463A46434648460D9900F04DFFC4E9A2
:105810000E01E278012A0BD1009A81F0004182F05A
:105820000042C4E90A528AF00042E163C4E90C6212
:10583000BDE8F88F0120C9E700408F402DE9F04313
:105840002B4D2C4C89B02868A0616E68E661AF686A
:1058500081462762E86801F00DFC2071286901F09B
:1058600009FC6071686901F021FCC0B22070A5F5E7
:105870009C714000C8600020C4E90E00384601F069
:1058800065FB07468846304601F060FB05460E463C
:10589000484601F05BFB0A4600210123CDE90631B1
:1058A0008DE8E50104F13803A3F10802A2F1080133
:1058B0001148FFF7F7FD01210F48FFF7E8FE02212D
:1058C0000D48FFF737FF94F9040001F0AEF80546E4
:1058D0000E4694F9050001F0A8F8CDE900560246FD
:1058E0000B460548FFF7E1FE09B0BDE8F083000074
:1058F0002002002000000020780000202DE9F04761
:105900002C49144641F2707209682B4EB1FBF2F734
:1059100031687F1E1D46CF6290B3DFF8A0904FF034
:10592000000801280ED0022828D104213046FEF7B5
:10593000B1FA002213462046294601F00DF820D185
:1059400040462BE000211C48FEF7A4FA0022134633
:105950002046294601F000F801D140460CE03846C7
:1059600001F07AF822462B4601F0C6F800224B4699
:1059700000F09AFE01F02CF831684863BDE8F0872A
:105980000FE0384601F068F822462B4601F0B4F8E3
:1059900000224B4600F088FE01F01AF83168886357
:1059A000ECE73C210448FEF7C3FABDE8F0470248A3
:1059B000FEF774B8700000209001002000005940EC
:1059C0007047000001480078704700005C0000202C
:1059D0000148B0F9020070475C0000207047FDF7F5
:1059E00065BC30B58FB028216846FAF71DFD14213B
:1059F0000AA8FAF719FD01210804CDE900100024D6
:105A0000029402250491CDE907504FF4E01009906B
:105A10006846FDF7C3FD08B172B6FEE70F20CDE979
:105A20000A058020CDE90C0402210AA80E94FDF796
:105A3000D9FC002801D072B6FEE70FB030BD704728
:105A40000148FEF7ADB80000900100200148FEF7C4
:105A5000A7B8000090010020F0B50268164B174C63
:105A6000174D4FF08047984205D0B84203D0A0426E
:105A700001D0A84203D122F070064A68324398420E
:105A800005D0B84203D0A04201D0A84203D122F4ED
:105A90004074CA6822434C6922F0800222430260AB
:105AA0008A68C2620A688262984201D10969016308
:105AB00001214161F0BD0000002C014000040040C4
:105AC0000008004010B501F01F030121046A99404D
:105AD0008C430462016A9A401143016210BD10B503
